{
  "_format": "hh-sol-artifact-1",
  "contractName": "SwapFactory",
  "sourceName": "contracts/OrderedSwapFactory.sol",
  "abi": [
    {
      "inputs": [],
      "name": "createSwap",
      "outputs": [
        {
          "internalType": "contract OrderedSwap",
          "name": "newSwap",
          "type": "address"
        },
        {
          "internalType": "uint256",
          "name": "length_",
          "type": "uint256"
        }
      ],
      "stateMutability": "nonpayable",
      "type": "function"
    },
    {
      "inputs": [],
      "name": "getAllSwaps",
      "outputs": [
        {
          "internalType": "contract OrderedSwap[]",
          "name": "",
          "type": "address[]"
        }
      ],
      "stateMutability": "view",
      "type": "function"
    }
  ],
  "bytecode": "0x6080604052348015600f57600080fd5b506117278061001f6000396000f3fe608060405234801561001057600080fd5b50600436106100365760003560e01c80637d1c18421461003b578063d6cfeae01461005a575b600080fd5b610043610078565b604051610051929190610248565b60405180910390f35b610062610115565b60405161006f919061032f565b60405180910390f35b600080604051610087906101a3565b604051809103906000f0801580156100a3573d6000803e3d6000fd5b5091506000829080600181540180825580915050600190039060005260206000200160009091909190916101000a81548173ffffffffffffffffffffffffffffffffffffffff021916908373ffffffffffffffffffffffffffffffffffffffff16021790555060008054905090509091565b6060600080548060200260200160405190810160405280929190818152602001828054801561019957602002820191906000526020600020905b8160009054906101000a900473ffffffffffffffffffffffffffffffffffffffff1673ffffffffffffffffffffffffffffffffffffffff168152602001906001019080831161014f575b5050505050905090565b6113a08061035283390190565b600073ffffffffffffffffffffffffffffffffffffffff82169050919050565b6000819050919050565b60006101f56101f06101eb846101b0565b6101d0565b6101b0565b9050919050565b6000610207826101da565b9050919050565b6000610219826101fc565b9050919050565b6102298161020e565b82525050565b6000819050919050565b6102428161022f565b82525050565b600060408201905061025d6000830185610220565b61026a6020830184610239565b9392505050565b600081519050919050565b600082825260208201905092915050565b6000819050602082019050919050565b6102a68161020e565b82525050565b60006102b8838361029d565b60208301905092915050565b6000602082019050919050565b60006102dc82610271565b6102e6818561027c565b93506102f18361028d565b8060005b8381101561032257815161030988826102ac565b9750610314836102c4565b9250506001810190506102f5565b5085935050505092915050565b6000602082019050818103600083015261034981846102d1565b90509291505056fe6080604052348015600f57600080fd5b506113818061001f6000396000f3fe608060405234801561001057600080fd5b50600436106100575760003560e01c80632eb6b6ce1461005c578063514fcac71461007a57806367b830ad14610096578063a85c38ef146100b2578063fc05ca31146100e9575b600080fd5b610064610105565b6040516100719190610fa1565b60405180910390f35b610094600480360381019061008f9190610fed565b61010b565b005b6100b060048036038101906100ab9190610fed565b610446565b005b6100cc60048036038101906100c79190610fed565b61095f565b6040516100e0989796959493929190611076565b60405180910390f35b61010360048036038101906100fe9190611120565b610a41565b005b60005481565b600073ffffffffffffffffffffffffffffffffffffffff163373ffffffffffffffffffffffffffffffffffffffff1603610171576040517f8579befe00000000000000000000000000000000000000000000000000000000815260040160405180910390fd5b6000600160008381526020019081526020016000209050600073ffffffffffffffffffffffffffffffffffffffff168160000160009054906101000a900473ffffffffffffffffffffffffffffffffffffffff1673ffffffffffffffffffffffffffffffffffffffff1603610212576040517f5dcaf2d700000000000000000000000000000000000000000000000000000000815260040160405180910390fd5b8060000160009054906101000a900473ffffffffffffffffffffffffffffffffffffffff1673ffffffffffffffffffffffffffffffffffffffff163373ffffffffffffffffffffffffffffffffffffffff161461029b576040517f69fbe33c00000000000000000000000000000000000000000000000000000000815260040160405180910390fd5b8060010160149054906101000a900460ff16156102e4576040517fb52ebfcc00000000000000000000000000000000000000000000000000000000815260040160405180910390fd5b8060010160159054906101000a900460ff161561032d576040517fca92fdbb00000000000000000000000000000000000000000000000000000000815260040160405180910390fd5b8060020160009054906101000a900473ffffffffffffffffffffffffffffffffffffffff1673ffffffffffffffffffffffffffffffffffffffff1663a9059cbb8260000160009054906101000a900473ffffffffffffffffffffffffffffffffffffffff1683600301546040518363ffffffff1660e01b81526004016103b4929190611187565b6020604051808303816000875af11580156103d3573d6000803e3d6000fd5b505050506040513d601f19601f820116820180604052508101906103f791906111dc565b5060018160010160146101000a81548160ff021916908315150217905550817f61b9399f2f0f32ca39ce8d7be32caed5ec22fe07a6daba3a467ed479ec60658260405160405180910390a25050565b600073ffffffffffffffffffffffffffffffffffffffff163373ffffffffffffffffffffffffffffffffffffffff16036104ac576040517f8579befe00000000000000000000000000000000000000000000000000000000815260040160405180910390fd5b6000600160008381526020019081526020016000209050600073ffffffffffffffffffffffffffffffffffffffff168160000160009054906101000a900473ffffffffffffffffffffffffffffffffffffffff1673ffffffffffffffffffffffffffffffffffffffff160361054d576040517f5dcaf2d700000000000000000000000000000000000000000000000000000000815260040160405180910390fd5b8060000160009054906101000a900473ffffffffffffffffffffffffffffffffffffffff1673ffffffffffffffffffffffffffffffffffffffff163373ffffffffffffffffffffffffffffffffffffffff16036105d6576040517ff9735b7b00000000000000000000000000000000000000000000000000000000815260040160405180910390fd5b8060010160149054906101000a900460ff161561061f576040517fb52ebfcc00000000000000000000000000000000000000000000000000000000815260040160405180910390fd5b8060010160159054906101000a900460ff1615610668576040517fca92fdbb00000000000000000000000000000000000000000000000000000000815260040160405180910390fd5b80600501548160040160009054906101000a900473ffffffffffffffffffffffffffffffffffffffff1673ffffffffffffffffffffffffffffffffffffffff166370a08231336040518263ffffffff1660e01b81526004016106ca9190611209565b602060405180830381865afa1580156106e7573d6000803e3d6000fd5b505050506040513d601f19601f8201168201806040525081019061070b9190611239565b1015610743576040517f7327d84100000000000000000000000000000000000000000000000000000000815260040160405180910390fd5b8060040160009054906101000a900473ffffffffffffffffffffffffffffffffffffffff1673ffffffffffffffffffffffffffffffffffffffff166323b872dd338360000160009054906101000a900473ffffffffffffffffffffffffffffffffffffffff1684600501546040518463ffffffff1660e01b81526004016107cc93929190611266565b6020604051808303816000875af11580156107eb573d6000803e3d6000fd5b505050506040513d601f19601f8201168201806040525081019061080f91906111dc565b508060020160009054906101000a900473ffffffffffffffffffffffffffffffffffffffff1673ffffffffffffffffffffffffffffffffffffffff1663a9059cbb3383600301546040518363ffffffff1660e01b8152600401610873929190611187565b6020604051808303816000875af1158015610892573d6000803e3d6000fd5b505050506040513d601f19601f820116820180604052508101906108b691906111dc565b5060018160010160156101000a81548160ff021916908315150217905550338160010160006101000a81548173ffffffffffffffffffffffffffffffffffffffff021916908373ffffffffffffffffffffffffffffffffffffffff160217905550813373ffffffffffffffffffffffffffffffffffffffff167f6ac084fe52cc25f2f64ae4aea087b0bf8e92c0a900b2425c1edda1f36c8cab0d60405160405180910390a35050565b60016020528060005260406000206000915090508060000160009054906101000a900473ffffffffffffffffffffffffffffffffffffffff16908060010160009054906101000a900473ffffffffffffffffffffffffffffffffffffffff16908060010160149054906101000a900460ff16908060010160159054906101000a900460ff16908060020160009054906101000a900473ffffffffffffffffffffffffffffffffffffffff16908060030154908060040160009054906101000a900473ffffffffffffffffffffffffffffffffffffffff16908060050154905088565b600073ffffffffffffffffffffffffffffffffffffffff163373ffffffffffffffffffffffffffffffffffffffff1603610aa7576040517f8579befe00000000000000000000000000000000000000000000000000000000815260040160405180910390fd5b600073ffffffffffffffffffffffffffffffffffffffff168473ffffffffffffffffffffffffffffffffffffffff1603610b0d576040517f8579befe00000000000000000000000000000000000000000000000000000000815260040160405180910390fd5b600073ffffffffffffffffffffffffffffffffffffffff168273ffffffffffffffffffffffffffffffffffffffff1603610b73576040517f8579befe00000000000000000000000000000000000000000000000000000000815260040160405180910390fd5b60008311610bad576040517f0f43956a00000000000000000000000000000000000000000000000000000000815260040160405180910390fd5b828473ffffffffffffffffffffffffffffffffffffffff166370a08231336040518263ffffffff1660e01b8152600401610be79190611209565b602060405180830381865afa158015610c04573d6000803e3d6000fd5b505050506040513d601f19601f82011682018060405250810190610c289190611239565b1015610c60576040517f7327d84100000000000000000000000000000000000000000000000000000000815260040160405180910390fd5b8373ffffffffffffffffffffffffffffffffffffffff166323b872dd3330866040518463ffffffff1660e01b8152600401610c9d93929190611266565b6020604051808303816000875af1158015610cbc573d6000803e3d6000fd5b505050506040513d601f19601f82011682018060405250810190610ce091906111dc565b506000808154610cef906112cc565b919050819055506040518061010001604052803373ffffffffffffffffffffffffffffffffffffffff168152602001600073ffffffffffffffffffffffffffffffffffffffff1681526020016000151581526020016000151581526020018573ffffffffffffffffffffffffffffffffffffffff1681526020018481526020018373ffffffffffffffffffffffffffffffffffffffff16815260200182815250600160008054815260200190815260200160002060008201518160000160006101000a81548173ffffffffffffffffffffffffffffffffffffffff021916908373ffffffffffffffffffffffffffffffffffffffff16021790555060208201518160010160006101000a81548173ffffffffffffffffffffffffffffffffffffffff021916908373ffffffffffffffffffffffffffffffffffffffff16021790555060408201518160010160146101000a81548160ff02191690831515021790555060608201518160010160156101000a81548160ff02191690831515021790555060808201518160020160006101000a81548173ffffffffffffffffffffffffffffffffffffffff021916908373ffffffffffffffffffffffffffffffffffffffff16021790555060a0820151816003015560c08201518160040160006101000a81548173ffffffffffffffffffffffffffffffffffffffff021916908373ffffffffffffffffffffffffffffffffffffffff16021790555060e082015181600501559050508373ffffffffffffffffffffffffffffffffffffffff163373ffffffffffffffffffffffffffffffffffffffff166000547f87fe93d79d983fe0c58212e2b0ffef6a47b3d30067aae73d04d7136301ac32d2868686604051610f7a93929190611314565b60405180910390a450505050565b6000819050919050565b610f9b81610f88565b82525050565b6000602082019050610fb66000830184610f92565b92915050565b600080fd5b610fca81610f88565b8114610fd557600080fd5b50565b600081359050610fe781610fc1565b92915050565b60006020828403121561100357611002610fbc565b5b600061101184828501610fd8565b91505092915050565b600073ffffffffffffffffffffffffffffffffffffffff82169050919050565b60006110458261101a565b9050919050565b6110558161103a565b82525050565b60008115159050919050565b6110708161105b565b82525050565b60006101008201905061108c600083018b61104c565b611099602083018a61104c565b6110a66040830189611067565b6110b36060830188611067565b6110c0608083018761104c565b6110cd60a0830186610f92565b6110da60c083018561104c565b6110e760e0830184610f92565b9998505050505050505050565b6110fd8161103a565b811461110857600080fd5b50565b60008135905061111a816110f4565b92915050565b6000806000806080858703121561113a57611139610fbc565b5b60006111488782880161110b565b945050602061115987828801610fd8565b935050604061116a8782880161110b565b925050606061117b87828801610fd8565b91505092959194509250565b600060408201905061119c600083018561104c565b6111a96020830184610f92565b9392505050565b6111b98161105b565b81146111c457600080fd5b50565b6000815190506111d6816111b0565b92915050565b6000602082840312156111f2576111f1610fbc565b5b6000611200848285016111c7565b91505092915050565b600060208201905061121e600083018461104c565b92915050565b60008151905061123381610fc1565b92915050565b60006020828403121561124f5761124e610fbc565b5b600061125d84828501611224565b91505092915050565b600060608201905061127b600083018661104c565b611288602083018561104c565b6112956040830184610f92565b949350505050565b7f4e487b7100000000000000000000000000000000000000000000000000000000600052601160045260246000fd5b60006112d782610f88565b91507fffffffffffffffffffffffffffffffffffffffffffffffffffffffffffffffff82036113095761130861129d565b5b600182019050919050565b60006060820190506113296000830186610f92565b611336602083018561104c565b6113436040830184610f92565b94935050505056fea2646970667358221220597322d788a895a48b476af859b09518676a8f2023bc8286114db9dec3a1fc8464736f6c634300081a0033a2646970667358221220b8de230e76648a2ac7236a8dab2a8bf809ee0ce354e2b10c6a109be137f401fb64736f6c634300081a0033",
  "linkReferences": {},
  "deployedLinkReferences": {}
}